:02000002B0004C
:1040000000400B00AAB50B00000006000C000502E2
:084010000401B41400000000DB
:04401800BC9F0B003E
:1040200081F0004102E000BF83F0004330B54FEA69
:1040300041044FEA430594EA050F08BF90EA020FD6
:104040001FBF54EA000C55EA020C7FEA645C7FEA69
:10405000655C00F0E2804FEA5454D4EB5555B8BF8C
:104060006D420CDD2C4480EA020281EA030382EAFD
:10407000000083EA010180EA020281EA0303362D8F
:1040800088BF30BD11F0004F4FEA01314FF4801C62
:104090004CEA113102D0404261EB410113F0004F74
:1040A0004FEA03334CEA133302D0524263EB43032B
:1040B00094EA050F00F0A780A4F10104D5F1200EC9
:1040C0000DDB02FA0EFC22FA05F2801841F1000124
:1040D00003FA0EF2801843FA05F359410EE0A5F1F8
:1040E00020050EF1200E012A03FA0EFC28BF4CF029
:1040F000020C43FA05F3C01851EBE37101F00045DF
:1041000007D54FF0000EDCF1000C7EEB00006EEBEB
:104110000101B1F5801F1BD3B1F5001F0CD3490875
:104120005FEA30004FEA3C0C04F101044FEA4452CC
:1041300012F5800F80F09A80BCF1004F08BF5FEA53
:10414000500C50F1000041EB045141EA050130BD33
:104150005FEA4C0C404141EB0101013C28BFB1F545
:10416000801FE9D291F0000F04BF01460020B1FA90
:1041700081F308BF2033A3F10B03B3F120020CDA63
:104180000C3208DD02F1140CC2F10C0201FA0CF041
:1041900021FA02F10CE002F11402D8BFC2F1200CA6
:1041A00001FA02F120FA0CFCDCBF41EA0C0190405C
:1041B000E41AA2BF01EB0451294330BD6FEA0404A5
:1041C0001F3C1CDA0C340EDC04F11404C4F1200290
:1041D00020FA04F001FA02F340EA030021FA04F3A2
:1041E00045EA030130BDC4F10C04C4F1200220FAF9
:1041F00002F001FA04F340EA0300294630BD21FA37
:1042000004F0294630BD94F0000F83F4801306BFFC
:1042100081F480110134013D4EE77FEA645C18BFF0
:104220007FEA655C29D094EA050F08BF90EA020F87
:1042300005D054EA000C04BF1946104630BD91EA7F
:10424000030F1EBF0021002030BD5FEA545C05D182
:104250004000494128BF41F0004130BD14F58004C1
:104260003CBF01F5801130BD01F0004545F0FE4135
:1042700041F470014FF0000030BD7FEA645C1ABF6A
:10428000194610467FEA655C1CBF0B46024650EAA1
:10429000013406BF52EA033591EA030F41F40021CD
:1042A00030BD00BF90F0000F04BF0021704730B553
:1042B0004FF4806404F132044FF000054FF0000128
:1042C00050E700BF90F0000F04BF0021704730B5E9
:1042D0004FF4806404F1320410F0004548BF4042BE
:1042E0004FF000013EE700BF42004FEAE2014FEA13
:1042F00031014FEA02701FBF12F07F4393F07F4FEE
:1043000081F06051704732F07F4208BF704793F0F0
:104310007F4F04BF41F40021704730B54FF4607403
:1043200001F0004521F000411CE700BF50EA010206
:1043300008BF704730B54FF000050AE050EA0102AF
:1043400008BF704730B511F0004502D5404261EB1F
:1043500041014FF4806404F132045FEA915C3FF460
:10436000D8AE4FF003025FEADC0C18BF03325FEAFD
:10437000DC0C18BF033202EBDC02C2F1200300FAAE
:1043800003FC20FA02F001FA03FE40EA0E0021FAD3
:1043900002F11444BDE600BF70B54FF0FF0C4CF4C1
:1043A000E06C1CEA11541DBF1CEA135594EA0C0F73
:1043B00095EA0C0F00F0DEF82C4481EA030621EAAE
:1043C0004C5123EA4C5350EA013518BF52EA0335E9
:1043D00041F4801143F4801338D0A0FB02CE4FF09B
:1043E0000005E1FB02E506F00042E0FB03E54FF0CB
:1043F0000006E1FB03569CF0000F18BF4EF0010EC3
:10440000A4F1FF04B6F5007F64F5407404D25FEABE
:104410004E0E6D4146EB060642EAC62141EA555171
:104420004FEAC52040EA5E504FEACE2EB4F1FD0CB3
:1044300088BFBCF5E06F1ED8BEF1004F08BF5FEA31
:10444000500E50F1000041EB045170BD06F00046E3
:1044500046EA010140EA020081EA0301B4EB5C0490
:10446000C2BFD4EB0C0541EA045170BD41F4801188
:104470004FF0000E013C00F3AB8014F1360FDEBFAD
:10448000002001F0004170BDC4F10004203C35DA89
:104490000C341BDC04F11404C4F1200500FA05F30C
:1044A00020FA04F001FA05F240EA020001F00042AD
:1044B00021F0004110EBD37021FA04F642EB060123
:1044C0005EEA430E08BF20EAD37070BDC4F10C044D
:1044D000C4F1200500FA04F320FA05F001FA04F211
:1044E00040EA020001F0004110EBD37041F10001FD
:1044F0005EEA430E08BF20EAD37070BDC4F1200508
:1045000000FA05F24EEA020E20FA04F301FA05F26F
:1045100043EA020321FA04F001F0004121FA04F217
:1045200020EA020000EBD3705EEA430E08BF20EAE7
:10453000D37070BD94F0000F0FD101F00046400021
:1045400041EB010111F4801F08BF013CF7D041EAA3
:10455000060195F0000F18BF704703F000465200A7
:1045600043EB030313F4801F08BF013DF7D043EA78
:104570000603704794EA0C0F0CEA135518BF95EA2E
:104580000C0F0CD050EA410618BF52EA4306D1D1B5
:1045900081EA030101F000414FF0000070BD50EAD4
:1045A000410606BF1046194652EA430619D094EA5E
:1045B0000C0F02D150EA013613D195EA0C0F05D148
:1045C00052EA03361CBF104619460AD181EA03019C
:1045D00001F0004141F0FE4141F470014FF0000054
:1045E00070BD41F0FE4141F4780170BD70B54FF0EF
:1045F000FF0C4CF4E06C1CEA11541DBF1CEA13556F
:1046000094EA0C0F95EA0C0F00F0A7F8A4EB050450
:1046100081EA030E52EA03354FEA013100F0888047
:104620004FEA03334FF0805545EA131343EA126310
:104630004FEA022245EA111545EA10654FEA0026C5
:104640000EF000419D4208BF964244F1FD0404F57E
:10465000407402D25B084FEA3202B61A65EB0305DA
:104660005B084FEA32024FF480104FF4002CB6EB97
:10467000020E75EB030E22BFB61A754640EA0C0017
:104680005B084FEA3202B6EB020E75EB030E22BF57
:10469000B61A754640EA5C005B084FEA3202B6EB98
:1046A000020E75EB030E22BFB61A754640EA9C0057
:1046B0005B084FEA3202B6EB020E75EB030E22BF27
:1046C000B61A754640EADC0055EA060E18D04FEAE5
:1046D000051545EA16754FEA06164FEAC30343EA85
:1046E00052734FEAC2025FEA1C1CC0D111F4801F52
:1046F0000BD141EA00014FF000004FF0004CB6E74B
:1047000011F4801F04BF01430020B4F1FD0C88BFE9
:10471000BCF5E06F3FF6AFAEB5EB030C04BFB6EBF4
:10472000020C5FEA500C50F1000041EB045170BDE7
:104730000EF0004E4EEA113114EB5C04C2BFD4EB14
:104740000C0541EA045170BD41F480114FF0000E98
:10475000013C90E645EA060E8DE60CEA135594EA14
:104760000C0F08BF95EA0C0F3FF43BAF94EA0C0F17
:104770000AD150EA01347FF434AF95EA0C0F7FF48C
:1047800025AF104619462CE795EA0C0F06D152EAE0
:1047900003353FF4FDAE1046194622E750EA4106C4
:1047A00018BF52EA43067FF4C5AE50EA41047FF4D5
:1047B0000DAF52EA43057FF4EBAE12E74FF0FF3C3A
:1047C00006E000BF4FF0010C02E000BF4FF0010C0B
:1047D0004DF804CD4FEA410C7FEA6C5C4FEA430C84
:1047E00018BF7FEA6C5C1BD001B050EA410C0CBFD3
:1047F00052EA430C91EA030F02BF90EA020F002035
:10480000704710F1000F91EA030F58BF994208BF9B
:1048100090422CBFD8176FEAE37040F00100704758
:104820004FEA410C7FEA6C5C02D150EA013C07D1AF
:104830004FEA430C7FEA6C5CD6D152EA033CD3D0FA
:104840005DF8040B704700BF8446104662468C46F4
:104850001946634600E000BF01B5FFF7B7FF002827
:1048600048BF10F1000F01BD4DF808EDFFF7F4FF50
:104870000CBF012000205DF808FB00BF4DF808EDDB
:10488000FFF7EAFF34BF012000205DF808FB00BFFE
:104890004DF808EDFFF7E0FF94BF012000205DF820
:1048A00008FB00BF4DF808EDFFF7CEFF94BF0120D5
:1048B00000205DF808FB00BF4DF808EDFFF7C4FFCE
:1048C00034BF012000205DF808FB00BF4FEA410C17
:1048D0007FEA6C5C02D150EA013C0AD14FEA430CFA
:1048E0007FEA6C5C02D152EA033C02D14FF0000037
:1048F00070474FF0010070474FEA410212F5001275
:1049000015D211D56FF47873B3EB625212D94FEA16
:10491000C12343F0004343EA505311F0004F23FA00
:1049200002F018BF404270474FF00000704750EA55
:10493000013005D111F0004008BF6FF00040704712
:104940004FF00000704700BF10F8012B11F8013B39
:10495000012A28BF9A42F7D0D01A7047034613F8AD
:10496000012B002AFBD1181A0138704709480A495F
:10497000884208B505D0094A824202D0121A05F0D1
:10498000D3F90748074A0021121A05F0DBF901485C
:1049900008BD00BF40E5032004B50B00B8E50320C7
:1049A000B8E50320F0E7032070B5074E074C03F08D
:1049B000A3FEA41BA4080025AC4200D170BD56F88C
:1049C000043B98470135F7E7BCB40B00E0B40B009B
:1049D00000F0ECBE08B500F017FEBDE8084003F09B
:1049E00043BE02F041BD02F03FBD02F045BD0000F4
:1049F00008B5034A03490C2002F08AFCFEE700BF19
:104A0000616F0B00D09F0B000078B0FA80F0400976
:104A100070470123037070470178408803F0EDBEB2
:104A200010B403685A6899681B68541001EB62005F
:104A3000D20748BF0A595DF8044B48BFD3581847FE
:104A400013B50A460346B0B10021816092E8030025
:104A50006C4684E8030093E8030082E8030094E8CE
:104A6000030083E803009868916890609960D168BA
:104A7000D868D060D96002B010BD012A38B50446AC
:104A800002D10B68236003E0022A03D0032A0DD071
:104A9000002038BD0C200D68FFF7A3FF0346002857
:104AA000F0D095E8070083E80700EBE700680028EE
:104AB000EED00C21FFF799FFEAE7000008B502F0FD
:104AC00057FA034B1860BDE8084002F05DBC00BF18
:104AD00028E7032010B58368044613B1032201467A
:104AE0009847204610BD000038B5094D0024D5E98F
:104AF00000031B1AB4EB231F09D200EB04108368D8
:104B00000BB903F068FFC36898470134EFE738BD7D
:104B1000ACE6032003682BB14268934202D21846E8
:104B200005F0FAB80020704738B50568044645B16D
:104B300043689D4205D22846FFF710FF0130054427
:104B40002560204638BDF8B5044647680D4621B9B2
:104B500003687A1C4260D955F8BD0846FFF7FEFE8F
:104B6000A368461CF2199A42F6D8206832462946B4
:104B7000384405F0D9F8606830446060ECE7000024
:104B800038B504460B46D0E901012568044A091AE4
:104B9000284402F081FC636801300344636038BD3F
:104BA000E59F0B0038B504460B46D0E901012568A6
:104BB000044A091A284402F06FFC63680130034478
:104BC000636038BDE89F0B0010B50121044606481C
:104BD00001F075FA044821684FF001134361BDE804
:104BE000104002F0F0BE00BF20E6032010B50446DE
:104BF0002DED028B0846FFF765FB02460B460020B1
:104C00000949FFF7F3FC41EC180B2046FFF75AFB6C
:104C1000B0EE481AF0EE681ABDEC028B41EC100BB6
:104C2000BDE8104003F0ECBF0000F03F08B50023E2
:104C30004377006803F02AFBBDE8084002F0B2B8F1
:104C40002DE9F74FD0E9008B07466FF07843ABEBC7
:104C50000800B3EB201F8A4611464FEA201202D10A
:104C6000244803F0B5FE012A144638BF0124A418D5
:104C7000AAEB08051BD2E4B19C4228BF1C462001C8
:104C80000191FFF7AEFE019906467019FFF7D8FEB5
:104C900045463046AA4500F110090CD02946FFF7D9
:104CA000CFFE2846FFF716FF10354846F2E71C46B0
:104CB000E5E72646E9E75D450AD029464846FFF77D
:104CC000BFFE2846FFF706FF103509F11009F2E78D
:104CD000B8F1000F05D0B9684046A1EB0801FFF715
:104CE00084FE06EB0414C7E90069BC6003B0BDE8AC
:104CF000F08F00BFEC9F0B002DE9F04FDFF87CA098
:104D0000DFF87C80DFF87C90416085B005460024A8
:104D10002E686B684FF0000B0C201F5BCDF808B0BD
:104D200006EB4406FFF75DFE10B1C0E900AB8660FC
:104D3000DFF854B00090DBE901039842CDE9029816
:104D400015D06946FFF77CFEDBF804301033CBF852
:104D500004306846FFF7BEFE0234778001213846F2
:104D600003F03AFD062CD3D105B0BDE8F08F014623
:104D70006A465846FFF764FFEBE700BF194A0B008D
:104D8000214A0B007B4A0B00ACE603202DE9F043DF
:104D90008F188FB0B942CDE905170646894690466F
:104DA00080F0C28005A80D88FFF7BEFE0368BB42F5
:104DB00080F0BA8005980378412B49D1013004F086
:104DC000ABFF052837DDFF2447F276239D4200F034
:104DD000D38041D847F261239D4200F0A88047F27A
:104DE00064239D426BD046F670539D4241D1784D6D
:104DF000784EDFF8F4810598B84280F0958003780A
:104E0000412B4BD1013004F087FF052839DDFF2409
:104E100005A8FFF789FEDDF8149029464846FFF7FC
:104E200093FD014600283DD1204603F0D5FC05A89E
:104E3000FFF77AFEDFE70598013004F06DFF0028E8
:104E4000C1DB0598013004F067FF0E30C4B2BBE748
:104E500005A8FFF75FFEF9E747F264739D424FD064
:104E600047F276739D4200F0978047F261739D424E
:104E70006FD00023CDE9013302220092728B1946D4
:104E80003AE00598013004F047FF0028BFDB0598A1
:104E9000013004F041FF0E30C4B2B9E705A8FFF7B6
:104EA00039FEF9E731464846FFF74EFD28B1414645
:104EB0004846FFF749FD0028B9D10121B4E70AAB04
:104EC0004549079307A810230025CDE90853FFF7AC
:104ED0003AFE07A82146FFF753FE204603F0A6FC42
:104EE000014607A8FFF75EFE089BCDE90155013B8F
:104EF0000093079B2A461421304600F085FA13E000
:104F000005A8FFF711FE03689F420DD9A4B2012145
:104F1000204603F061FC05A8FFF7FCFD011E18BF49
:104F20000121204603F069FC0FB0BDE8F0830AAB15
:104F3000079307A8102329490025CDE90853FFF757
:104F400002FE07A82146FFF71BFE204603F081FC66
:104F5000C6E705A8FFF7E8FD03689F42E4D9A4B2BD
:104F60000121204603F038FC05A8FFF7D3FD0146D8
:104F7000204603F085FCD7E720468DF8284001F055
:104F800013FF03460AA823B1154A934201D098475C
:104F9000CAE701F005FFC7E705A8FFF7C5FD059BB8
:104FA0008DF81C40A3EB0901A8EB01012046CDE9D7
:104FB0000A310C9101F002FF03460AA907A823B1A8
:104FC000084A934201D09847AEE701F0EAFEABE70A
:104FD00006A00B0009A00B0011A00B0014A00B00F1
:104FE000A16D0B00A36D0B000DA00B002DE9F0418E
:104FF0008CB004AF044605220068391D02F009FE9A
:10500000A8B3052804D000202037BD46BDE8F081B4
:10501000B7F8050002F06CF8A7F80500B7F807002C
:1050200002F066F8B7F80530A7F807008046002BB5
:10503000E9D03B7923BB01F0B1FE0246E060607F1E
:10504000B7F80730C0B9B7F80510012914D1092BFA
:105050000FD0C82B01D0042BD6D101256261204688
:10506000657700F081FAFFF729FD01F09BFE012032
:10507000CAE703236377C7E7581F18BF0120C3E7B8
:10508000B0F5806F03D92046FFF7D0FDEFE700F1C0
:10509000080323F007036E46ADEB030D04AD024693
:1050A0002946206802F0B5FD80454FF000007FD111
:1050B000B7F80730E85401F071FE3B79E060142B3B
:1050C00000F0A68048D80F2B00F0A28007D8022B52
:1050D00048D0062B51D02046FFF7A8FD58E0112BF1
:1050E000F9D100233B70B7F807302B449D42C7E944
:1050F00003534DD207F10C00D5F80080FFF714FDE3
:10510000FB68B7F807105D1B4D1BC7E905357B68C9
:10511000FD61C3F30F236383644B984500F0BF80A8
:1051200000F28C80A3F57F236FF40072134498453E
:1051300000F09D8079D8A3F50033063B984500F038
:105140009C8003F50033033398456BD107F11401BC
:10515000384601F026FE65E0292B1BD0372B17D0EF
:105160001D2BB8D1637F43B901236377204600F03C
:10517000FBF9FFF7A3FC01F015FE0023C821B7F8E7
:1051800005200091CDE901331946204600F03CF995
:1051900001200DE0A3681BB9402002F065F9A06072
:1051A000B7F80780A8444545C7E9055802D3002051
:1051B000B54629E729464022A06804F0F9FDA36816
:1051C000002583F83F5007F11400FFF7ADFC03689A
:1051D00098451BD9786920B1BB69984214D204F074
:1051E0009FFD85B2206803F051F82368A2685A63D6
:1051F0001D870023637701F0D1FDA0F59C5008388E
:10520000C4E903006061C3E72846EAE75025E9E7FF
:105210007B68B7F80720C3F30F2363832946204632
:10522000FFF7B4FD00236383B2E7214B9845F9D122
:1052300007F11401384601F0B4FDF3E71D4B984522
:1052400021D003F19F6303F5003303F58073984584
:105250001FD003F16E4303F5302303F586739845A1
:10526000E0D107F11401384601F09BFDDAE707F1C0
:105270001401384601F095FDD4E707F114013846D2
:1052800001F08FFDCEE707F11401384601F089FDEA
:10529000C8E707F11401384601F083FDC2E707F1C2
:1052A0001401384601F07DFDBCE700BF766673004F
:1052B0006462670061636F6E2DE9F04104468CB053
:1052C0000D46FFF7FBFB637F022B1ED0237F628B13
:1052D0000133DBB22377AAB9022B13D8206802F07E
:1052E0009DFEA8B125B9206802F076FF00280FDDE9
:1052F0002046FFF77BFE0028F5D1206802F0C6FFAC
:1053000001F050FD237F013B23770CB0BDE8F08115
:1053100001F044FD0546206802F080FE677F012F02
:10532000064624D120B965612046FFF77FFCE9E7F6
:10533000E3684FF21862EB1A9342F5D84AF6C87246
:10534000934203D82369EB1A9342DBD9636941F294
:105350007072EB1A9342D5D90023CDE90133009343
:105360001A460621204600F04FF86561CAE7002F73
:10537000C8D16369EB1A40B141F270729342C1D94E
:10538000206802F083FF6777BCE741F288329342DE
:10539000B8D9206802F07AFFD4F800C0DCF834E015
:1053A000BCF83880BEF1000F1BD033464246714630
:1053B000604602F0B5FD0128D7D163680593012549
:1053C00018462583FFF7CAFA0022CDE90122059B82
:1053D00000902A461D21204600F016F823696361DB
:1053E00090E7084B06930CF120070FCF07AE0FC6CE
:1053F0003B6833704246734606A9604602F070FE71
:10540000D9E700BFB0B00B002DE9F04F83B000AF7B
:10541000044600683D6B884616469946EB4602F006
:10542000FDFD002800F08180B8F11D0F04D84D4B20
:1054300023FA08F3DB0702D4637F012B75D146B949
:10544000668B36B9238B01339BB2002B72D023833A
:10545000268BA8F10C03082B16D8D4E9032393421A
:1054600038BF134603F1420A01F098FCAAEB000092
:10547000002861DB00212046FFF71EFF01F08EFCB3
:10548000AAEB00000028F5DAB9F1000F5BD06B1D24
:105490007A6B002ABA6B08BF002203EB020A0AF1FA
:1054A000070323F00703ADEB030D30468DF80080B2
:1054B000C7F804D001F024FEBB6BADF80100E8187A
:1054C00080B201F01DFEADF80300B9F1000F3CD031
:1054D000002D3AD02A4649460DF1050004F024FC7F
:1054E000681D7B6B3BB1BB6B2BB11A467B68796B3C
:1054F000184404F019FC002555452AD2AAEB0502F0
:105500007B682068B2F5806F28BF4FF4806259191C
:1055100002F037FC0646002001F03EFCBEB92068D0
:1055200002F0B4FE667701F03DFC0C37DD46BD4667
:10553000BDE8F08F01238AE7217F0029A4D120460E
:10554000FFF7BAFEA0E70523A2E70520C9E7354427
:10555000D2E703D02046FFF769FBE6E701F01EFC27
:105560002061E2E74500002030B599B008AB044661
:1055700005930025402305A80B49CDE90653FFF705
:10558000E2FA05A80949FFF7DEFA069B0293059B9C
:105590000193652300932A46054B11212046FFF70E
:1055A00033FF19B030BD00BF17A00B001CA00B00CB
:1055B000A0A00B00F0B5ADF2244D08AB00240546C9
:1055C0000F46059305A84FF480630E491646CDE9B2
:1055D0000643FFF7B8FA394605A8FFF7D1FA314676
:1055E00005A8FFF7CDFA069B013B0093CDE90144E6
:1055F000059B224614212846FFF706FF0DF2244D95
:10560000F0BD00BF2AA00B00F0B5002187B05A4CB6
:105610005A485B4F5B4DFFF74FFE00232361FFF7B6
:1056200063FA204601F045FC204600F001FF564891
:1056300001F09CFA3860544801F095FA2860204641
:1056400001F050FC514C18B1237883F00103237012
:1056500049484F4E01F050FC18B1337883F00103F4
:105660003370454801F052FC4A4B18B11A7882F069
:1056700001021A701A78002A72D02A683F48002165
:10568000FFF798FF3A683D480121FFF793FF012299
:105690003A480221FFF78EFF00233F49337002A8EA
:1056A000237002F016FB02A8FFF78EFA02A802F0A0
:1056B000C5FA3378A3B1394902A802F00AFB02A85F
:1056C000FFF782FA02A802F0B9FA39680A2202A8A2
:1056D00002F025FB02A8FFF777FA02A802F0AEFA63
:1056E0002378A3B12E4902A802F0F3FA02A8FFF72B
:1056F0006BFA02A802F0A2FA29680A2202A802F0B4
:105700000EFB02A8FFF760FA02A802F097FA254EF6
:10571000336800241C70336828681C711C720521D2
:105720001438FFF763FA12A3D3E9002351EC100BEE
:10573000FEF75CFFFFF7E0F81B4D0423286008220A
:1057400000932146234601F0D7FE336828600122EA
:1057500003F82020084807B0BDE8F04001F0D6B8B3
:1057600006480221FFF726FFA3E700BFAFF3008042
:10577000CDCCCCCCCCCCF43F20E60320B8E5032044
:105780009CE6032090E6032098E6032014E603201D
:1057900015E6032016E603202DA00B0046A00B0003
:1057A00053A00B0018E6032094E60320F8B5304917
:1057B0003048314CFFF7A0FA304801F051FB40F679
:1057C000B83001F0E9FA2E4B636001F0E7FAA0F57A
:1057D0009C5023682B4A5A630838C4E903005022BE
:1057E00060611A87002644F24F67206802F04EFD80
:1057F000667701F0D3FA0546637F012B0CD001F0E8
:10580000CDFA401BB84204D800212046FFF754FDD2
:10581000F2E7637F012BE8D1184800F009FE174832
:1058200001F074F803F06EF801F00AFF02F04AFE8E
:105830004FF4165102F036FE02F044FE02F036FE3E
:105840000028F9D003F05EF801460F4801F079FA1C
:1058500028B902F037FE0D4902F0B5F8FEE70A4814
:1058600001F002FABDE8F840074801F020BA00BF95
:1058700040E5032018E60320B8E5032020E60320D6
:105880005DA00B007EA00B0098E603208AA00B0011
:1058900038B5154B154D0024C3E900449C602846DB
:1058A00002F03EFD05F11C0001F044FF104B6C635B
:1058B000C3E90054C3E90244C3E904449C619C83E6
:1058C000214601202C8701F043FD0A4801F011F91F
:1058D0000948072101F096FA084B094A1C70C2E9F1
:1058E00000341C711C7238BDACE60320D8E50320DF
:1058F000B8E5032098E6032020E60320A0E6032075
:1059000018E603202DE9F04F85B01F46BDF9388019
:10591000BDF83C30A8EB0209A7EB010AB9F1000F72
:10592000B8BFC9F10009BAF1000FB8BFCAF1000A47
:10593000D14583460C46154604DD3A462C4647467B
:105940000D469046BC4205DD2A4645469046224615
:105950003C4617463E1BB2B20092A8EB050282EA13
:10596000E271A1EBE271C6F3C03202FA86F6454558
:10597000B4BF01224FF0FF32019176100292BC4277
:105980001CDCDBF800200393D145D2F81880C7BF98
:10599000294622462A4621465846C047019A039B7B
:1059A000B61AB1B236B2002E05DA029A1544009A40
:1059B00056182DB236B2013424B2E0E705B0BDE886
:1059C000F08F704710B404682469A4465DF8044B56
:1059D000604730B40468BDF808500295A46BA44633
:1059E00030BC604730B40468BDF808500295E46BE1
:1059F000A44630BC604770B4BDF90C50BDF81060CF
:105A00000468CDE90356246CA44670BC60472DE9B8
:105A1000F3411C460368BDF820805B6905461646C5
:105A2000013C34440F4624B298472B68CDF80480DB
:105A300000949C6A28463B4632463946A0472B686C
:105A4000DB6A284602B0BDE8F04118472DE9F34172
:105A50001D460368BDF820805B69044617460E4664
:105A60009847CDE9007822686B1E3344956A20463A
:105A70001BB23A463146A8472368DB6A204602B08B
:105A8000BDE8F04118472DE9F3471E460368BDF90C
:105A900028905B69BDF82C800C4605461746984750
:105AA0002644B4422B680BDACDF80080D3F820A04E
:105AB00021464B463A4628460134D04724B2F0E707
:105AC000DB6A284602B0BDE8F047184713B5026804
:105AD0000191B0F90E100091146CB0F90C30002255
:105AE0001146A04702B010BD2DE9F7439942164672
:105AF000BDF92870BDF82C90026880460D461C4602
:105B000013D1BE42C8BF3346CDF82890C4BF3E462D
:105B10001F467B1C946B9B1B1BB23246294640469A
:105B2000A44603B0BDE8F0436047BE420AD19942A3
:105B3000C2BF0B4625461C46631CCDF82890D46B8B
:105B40005B1BE9E753699847CDE90079D8F8003045
:105B500040469F6A324623462946B847D8F8003067
:105B6000DB6A404603B0BDE8F04318472DE9F34730
:105B70001D460368BDF82C805B69BDF9289004467A
:105B80000F46164698472368CDF80080D3F824A026
:105B900032462B4639462046D0472368CDF8008050
:105BA00009F1FF323244D3F824A039462B4620466F
:105BB00012B2D0472368CDF80080D3F820A0324637
:105BC0004B4639462046D0476B1ED9192368CDF87D
:105BD00000801D6A20464B46324609B2A84723681A
:105BE000DB6A204602B0BDE8F0471847704701F075
:105BF0000303B0F90A208376C907B0F9083059BF0A
:105C00008381C2818281C3817047000030B54281A7
:105C1000C281074A074D0181002481814FF0FF3185
:105C2000C0E905124460056004610477046230BD78
:105C30000101000110A60B002DE9F04F89B0CDE95C
:105C400002120268BDF948800493BDF94C305269D4
:105C50000593BDF850A00446904718F107024FF095
:105C6000000648BF08F10E024FEAE20B01963546E6
:105C7000039B019ABDF904109A18059B8B4212B23E
:105C800027DD049B33444FF0000906930FFA89F097
:105C900080451FFA89F117DD4F0705BF069BC0102D
:105CA0006D001D5C18BFEDB22B060AD5029B206863
:105CB00007921944836909B21F4620465346B847E4
:105CC000079A09F10109E1E7019B013301935E4461
:105CD000CEE72368DB6A204609B0BDE8F04F1847DD
:105CE0002DE9F04F2DED028B91B01646026ABDF8FA
:105CF00074809DF878509DF87C4003911F46BDF854
:105D0000703004938346002A40F0C580B0F90C300F
:105D10008B4240F34C81B0F90E30B34240F34781DF
:105D2000062313FB0513002B40F3418106EBC4034C
:105D3000002B40F33C81037F1BB9AF2F84BF013799
:105D4000FFB2DBF8003058465B699847052209929C
:105D500000220592984A07EB8703D3180C93B3B23D
:105D60000693059A0C9B9B5C0793ABB20B93BDF813
:105D70000C300893039B02FB05F919FA83F90FFA1B
:105D800089F308EE103A08230A93039B02EB030AF7
:105D90004FF000090FFA8AFA079ADBF80030D207B1
:105DA00052D5012D1FFA89F23ED1012C3CD19B69BD
:105DB00006991F46049B0A4412B251465846B847FA
:105DC00009F101034FFA83F9079B5B0807930A9BCC
:105DD000013B13F0FF030A93DED1059F01377BB22D
:105DE0000593099B013B13F0FF030993B9D1049B71
:105DF00043450FD0012DDBF800303BD1012C39D1C8
:105E00000899CDF8008005311C6A3246082309B292
:105E10005846A047DBF80030DB6A584611B0BDECAD
:105E2000028BBDE8F04F1847069914FB02F20A44B2
:105E3000049901910094DB6918EE101A1F4612B202
:105E40002B465846B847BBE7049A4245B8D0012DC7
:105E50001FFA89F207D1012C05D19B6906991F46CB
:105E60000A444346A8E70699CDF8048014FB02F2E1
:105E70000A44DFE70B9ACDF8048002EB8201089A0E
:105E8000E4000A4411460094DC6932462B4609B20C
:105E90005846A047BEE7137A516812680B92FF1A62
:105EA000FFB201EBC70331F8372006929A780992C6
:105EB000DA780C92012D93F9052093F906A00A9245
:105EC00001D8012C57D9BDF9283008930FFA8AF36D
:105ED0000793DBF8003058465B699847B3B24FF040
:105EE00000080E931AFA86F3C14647460F930C9B9F
:105EF0009F428FD2079B0E9A3B4403FB0423002250
:105F000005920F9A1BB202EB070A08EE103A0FFA3D
:105F10008AFA4346099A0599914241D25A1CD2B253
:105F20005B070D9207D1069B06990B9A01339BB232
:105F300012F80190069319F0800F12D0012DDBF8B2
:105F40000030BDF80C101AD1012C18D10A9A9B69A7
:105F50001144059A11441E465246049B09B2584604
:105F6000B047059E0136F3B24FEA490905935FFA3F
:105F700089F90D9BCEE70023CDE90733A9E7059802
:105F8000089A024402FB0511049ACDE90042DB693C
:105F900018EE102A1E4609B22B465846B047E0E7D5
:105FA000099B013798445FFA88F8FFB29FE711B068
:105FB000BDEC028BBDE8F08F07A10B00F0B5026AC3
:105FC00085B004460B46002A34D10A2908D1438AF9
:105FD0000282427E03EBC2036382012005B0F0BD62
:105FE0000D29FAD0E17E007E657E71B1B4F91060B2
:105FF000062111FB0061B4F90C60B142C1BFB4F9D4
:106000001210228201EBC5026282E28A0192A28A08
:106010000092CDE90205B4F91220B4F9101020461F
:10602000FFF75EFE237E228A03EB430302EB43036A
:106030002382D2E70A2907D100230382417E927A84
:10604000438A01FB0233C7E70D29C6D0157AA9425E
:10605000C3D3517A9942C0D351685D1BEDB201EBB5
:10606000C505A87828B3E97819B3E17E267E677E56
:1060700091B195F905100844B4F9101006FB001110
:10608000B4F90C00814207DD00202082B4F912101F
:10609000927A02FB07126282E28A0192A28A00923D
:1060A000CDE90267B4F91220B4F910102046FFF7C9
:1060B00017FE2979227E238A01FB0233B8E70129E2
:1060C00038BF0121017641767047704710B5102125
:1060D0000446FEF78AFC204610BD0EB403B503ABA0
:1060E000002153F8042B019301F095FC02B05DF8F8
:1060F00004EB03B07047000073B5044608462279EC
:10610000A36832B1A3B90B4902B0BDE8704001F0F9
:1061100047BC094A267B094D0949647B012E18BFFB
:106120002946CDE900140749FFF7D7FF02B070BD3B
:10613000054AEFE771A60B0068A60B006DA60B00E1
:1061400069A60B0087A60B0060A60B0010B5044BD8
:1061500003600446C06A08B101F08EF9204610BD04
:1061600060AB0B0010B50446FFF7F0FF204650214E
:10617000FEF73BFC204610BD002910B54BDBB0F903
:106180000C408C4247DD002A45DBB0F90E409442BA
:1061900041DD847E022C1FD0032C26D0012C04D19B
:1061A0000489D24314440A4621B2012B23D0022B86
:1061B00032D083BB002A13460489C06AB8BFD31DFE
:1061C000DB1013FB041102F0070201239340425C31
:1061D00022EA030242541EE00489013C611A448908
:1061E000D243224409B212B2DFE74489013C641A67
:1061F000114622B2D9E7002A04891346B8BFD31D3D
:10620000DB1013FB0411C36A02F007000122824075
:10621000585C02435A5410BD002A13460489C06AD0
:10622000B8BFD31DDB1013FB041102F007020123DA
:1062300003FA02F2435C5A40CCE7000070B5044612
:106240001D460026FFF7E2FC114B2360666215B97C
:1062500002F058FB0546FF2384F8333084F83630CB
:106260009DF9103084F837300A4BA363012384F87A
:106270003C30059BA3644FF6FF72069BA286C4E9DF
:106280000A562664A4F84460E364204670BD00BF4B
:1062900060AB0B00ACA60B00F8B50446806A0D4657
:1062A00090B194F9301001F001FAA06A036800215E
:1062B0009B689847A06A036829469B689847A06A2C
:1062C000BDE8F84001F0F9B994F93530014698B2CB
:1062D00002F093FA606A20B12946BDE8F84001F067
:1062E0007DBC0826802794F9330005EA070180B2B7
:1062F00002F083FA94F93400012180B202F07DFAB1
:1063000094F93400002180B202F077FA013E4FEA9E
:106310005707E8D1F8BD38B50446806A0D4680B10C
:10632000A16C01F089F9002D204614BFA721A621F8
:10633000FFF7B2FFA06A88B1E16CBDE8384001F018
:106340007BB9606A18B104F1380101F0D9FB94F906
:106350003600002180B202F050FAE4E794F93600EA
:10636000012180B202F049FA606A18B1BDE83840F4
:1063700001F0ACBB38BD2DE9F8430446806A0D46F8
:106380008F1840B394F9301001F090F9A06A0368B7
:1063900000219B6898470126AF42A06A17D01F2EA4
:1063A0000CD901F08AF994F93010A06A01F07EF955
:1063B000A06A036800219B6898470126A06A15F827
:1063C000011B036801369B689847F6B2E4E7BDE815
:1063D000F84301F072B994F93530014698B202F0F1
:1063E0000CFABD4222D0606A15F8019B18B14946EB
:1063F00001F0F4FBF5E708264FF0800894F933002C
:1064000009EA080180B202F0F8F994F93400012198
:1064100080B202F0F2F994F93400002180B202F067
:10642000ECF9013E4FEA5808E8D1DAE7BDE8F88315
:10643000B0F90A30DA1D48BF03F10E02B0F9083096
:10644000C06AD2105A43002103F07CBC2DE9FF4101
:106450001E46C36A9DF8288004460F461546C3B100
:106460002046FFF7E5FFB4F90A00B4F90810202828
:1064700021DC202301222038CDE9013200EBD0704D
:1064800073237339009301EBD171894B40F34F02B1
:1064900021E0B0F90A30D81D48BF03F10E00B4F96D
:1064A0000830C010584300F0DFFFE0620028D7D169
:1064B00004B0BDE8F0814038C0F3C03202FA80F287
:1064C00040230120CDE90130522352390093794B0A
:1064D00001EBD1715210204641F34F01FFF7ACFBA5
:1064E000A06A84F83170002878D0002D74D1B4F9F6
:1064F0000A30202B0CBF3C253D2584F83050B8F1E4
:10650000000F01D001F09CF8FEB194F9370000288B
:106510001BDB012180B202F05FF994F93700012101
:1065200080B202F06AF9012000F0F2FF94F937001E
:10653000002180B202F061F90A2000F0E9FF94F92D
:106540003700012180B202F058F9A06A002874D007
:10655000A16C01F071F8042257492046FFF70BFFA8
:1065600061890139C9B22046FFF796FE53490422DA
:106570002046FFF700FF94F93130012B0CBF1021AA
:1065800014212046FFF788FE04224D492046FFF7DC
:10659000F2FEA3684B4A93425CD14B490422204649
:1065A000FFF7E9FED9212046FFF776FE94F9313056
:1065B000012B0CBF2221F1212046FFF76DFE204662
:1065C00042490622FFF7D7FEA06A002863D0E16C9B
:1065D00001F032F801206BE76DB28EE794F93500D7
:1065E000012180B202F0F8F894F93600012180B25E
:1065F00002F0F2F894F93600012180B202F0FDF8C1
:10660000656A3DB1B8F1000F3FF47EAF284601F056
:1066100049FA79E794F93300012180B202F0DCF8FD
:1066200094F93400012180B202F0D6F894F93400D4
:10663000294680B202F0E1F866E7606A18B104F119
:10664000380101F05DFA94F93600002180B202F0C1
:10665000D4F880E71E4A93420ED11E4903222046F9
:10666000FFF789FE94F93130012B0CBF9F21CF2118
:106670002046FFF711FE95E7174A934292D117493A
:1066800003222046FFF777FE94F93130012B0CBF2F
:106690001021AF21ECE794F93600012180B202F01D
:1066A000ACF8606A002895D001F010FA92E700BFBC
:1066B00078A90B00B8A60B00C0AB0B00C4AB0B0055
:1066C000C8AB0B0080002000D2AB0B00CCAB0B00A2
:1066D00080004000D6AB0B0060001000D9AB0B006F
:1066E00070B5002ABDF810503DDBB0F90A40944265
:1066F00039DD0029BEBF5B181BB20021B0F908408C
:10670000CE18A642C4BF631A1BB2002B2BDDC06A91
:10671000D61014FB0611014402F00700012282404A
:10672000012DD2B216D0022D0BD0E5B9D243D2B290
:106730000B44994217D011F8010B104001F8010CDD
:10674000F7E70B4499420ED011F8010B504001F8C5
:10675000010CF7E70B44994205D011F8010B1043E7
:1067600001F8010CF7E770BDF0B50029BDF8145031
:1067700076DBB0F90860B14272DA002ABEBF9B181E
:106780001BB20022B0F90A40D718A742C4BFA31A0F
:106790001BB2002B64DDC2F3C404C76A16FB0416E7
:1067A00012F00702DBB207EB060423D0C2F10802A5
:1067B000D2B22D4993423CBF4FF0FF0CA2EB030E27
:1067C000895C3CBF4CFA0EFC0CEA0101012D07D09C
:1067D000022D2ED04DB917F806C02CEA010103E0B6
:1067E00017F806C041EA0C01B955934238D3B0F905
:1067F00008100C449A1AD2B2072A0ED9022D1DD1C4
:1068000013462178C9432170083BB0F90810DBB268
:10681000072B0C44F5D802F007020AB3134B012DE5
:106820009B5C1AD0022D1CD0D5B9227822EA030332
:1068300015E017F806C081EA0C01D5E7291E18BF3C
:1068400001214942C9B213462170083BB0F90860E2
:10685000DBB2072B3444F7D8DDE7227813432370EB
:10686000F0BD22785340FAE7B0AB0B00B8AB0B0099
:1068700070B41446827EBDF80C60022A0DD0032A43
:1068800018D0012A11D10289E443144424B203969A
:106890000A46214670BCFFF767BF42890589E44379
:1068A00019441444691A24B209B20396224670BCF2
:1068B000FFF716BF45891944691A09B2E7E730B4F2
:1068C0001446827EBDF80850022A0DD0032A18D043
:1068D000012A11D1E2180489A41A24B202950A46A9
:1068E000214630BCFFF7FCBE0289C9431144E218BF
:1068F0004489A41A09B224B20295224630BCFFF79B
:1069000033BF4289C943114409B2E7E72DE9F8438F
:106910000446806A002842D0A16C00F08DFE4749F1
:1069200005222046FFF727FD218901392046C9B2FB
:10693000FFF7B2FCB4F90A30DE1D48BF03F10E06C2
:10694000D4E90A052389F61013FB06F615FA86F634
:1069500000283AD094F9301000F0A8FEA06A03682D
:1069600040219B6898470127B542A06A24D01F2F79
:106970000CD900F0A2FE94F93010A06A00F096FE47
:10698000A06A036840219B6898470127A06A15F810
:10699000011B036801379B689847FFB2E4E7606A10
:1069A00018B104F1380101F0ABF894F93600002178
:1069B00080B201F022FFB2E700F07FFEA06A78B358
:1069C000E16CBDE8F84300F037BE94F935000121D1
:1069D00080B201F012FFAE42F0D0606A15F8019B60
:1069E00018B1494601F0FAF8F5E708274FF080089A
:1069F00094F9330009EA080180B201F0FEFE94F92F
:106A00003400012180B201F0F8FE94F93400002135
:106A100080B201F0F2FE013F4FEA5808E8D1DAE710
:106A200094F93600012180B201F0E7FE606A18B1E6
:106A3000BDE8F84301F04AB8BDE8F883DCAB0B00D1
:106A400000210A22C0E900127047002310B5044655
:106A5000C171837188B201F0E9FE08B10323A3710B
:106A600000F086FA206010BD38B50C460546114688
:106A7000A0B201F0B1FE21462846BDE83840FFF73C
:106A8000E4BF38B50446C07901F0D0FEA5790038DE
:106A900025F0080318BF0120C5F340058542A37106
:106AA0000AD000F065FAA379206083F00203A37195
:106AB000A079C0F3C00038BD00F05AFA2368C01AAC
:106AC000A3889842F4D3A37903F00103AB42EFD03B
:106AD00000F04EFAA379206083F0010343F008032D
:106AE000E5E7807900F00900A0F108035842584119
:106AF0007047704710B504466021006800F0D2FD71
:106B0000206800F0DAFDB0FA80F0400910BD38B519
:106B100005460C460068602100F0C4FD2868036843
:106B200021469B6898472868002100F0C2FD08B103
:106B3000002038BD28680222602100F0B0FD2868DE
:106B400003681B6998470028F2D0286803685B69CE
:106B500098470446286803685B699847E4B244EAAA
:106B6000002080B2E5E70821FFF7D1BF0921FFF738
:106B7000CEBF0C21FFF7CBBF70B504460E460068B0
:106B80006021154600F08EFD2068036831469B6841
:106B9000984720680368E9B29B68984720680368B3
:106BA000290A9B689847206800F087FDB0FA80F0BA
:106BB000400970BD70B504460D461646FFF7A7FFA5
:106BC00000F47F4040EA060229462046BDE87040B6
:106BD000FFF7D2BF70B504460D461646FFF797FF84
:106BE000C0B240EA062229462046BDE87040FFF7C1
:106BF000C3BF08B5FFF78BFFC0F3072008BD2DE921
:106C0000F04104469DF818700D46984616466AB144
:106C1000FFF77DFFC0B200EA080343EA07022946F6
:106C2000204636B1BDE8F041FFF7C4BFFFF7E1FFF2
:106C3000F1E7BDE8F041FFF7CDBFB1F5A07F07B5A3
:106C40000ED29F290ED84F298CBF402300230093DA
:106C500001223F230321FFF7D2FF03B05DF804FBBD
:106C6000C023F4E78023F2E707B500210091FE235B
:106C70000122FFF7C4FF03B05DF804FB072907B545
:106C80000FD803290FD810D002290CBF04230023EA
:106C900000930122F1230321FFF7B1FF03B05DF858
:106CA00004FB0E23F4E70C23F2E70823F0E707B513
:106CB000002300930122FE230321FFF7A0FF03B06E
:106CC0005DF804FB07B50F298CBF08230023009350
:106CD0000022F7230321FFF792FF03B05DF804FBC6
:106CE00007B5022300930122EF230421FFF787FF5A
:106CF00003B05DF804FBC72907B516D8B32916D829
:106D00009F2916D88B2916D8772916D8632916D823
:106D10004A2994BF002101210091F8230022042177
:106D2000FFF76DFF03B05DF804FB0721F4E70621D0
:106D3000F2E70521F0E70421EEE70321ECE7022169
:106D4000EAE738B504460846216000F079FC2046A1
:106D5000FFF7D0FE054610B90025284638BD20466D
:106D6000FFF707FFB0F5C37FF6D12046C821FFF734
:106D7000C2FF20462821FFF760FF20460821FFF7C9
:106D80007DFF10212046FFF79DFF2046FFF7A8FF5B
:106D90002046FFF78CFFE0E700F0BABB00F0E8B850
:106DA000704770477047000003065ABF024B53F804
:106DB00020000020704700BFE4AB0B0003065ABF61
:106DC000024B53F820000020704700BFE4AD0B00D9
:106DD00010B5064B03600446006D08B100F0A8F83A
:106DE0002046FFF7B3F9204610BD00BFECAF0B0003
:106DF00010B50446FFF7ECFF20467021FDF7F5FDC6
:106E0000204610BD30B585B004460D4601F07AFD30
:106E1000104A1149CDE901214FF0FF32802103468C
:106E2000009220462022FFF709FA0C4B2360002332
:106E3000C4E9143504F15800FFF702FE04F16000C4
:106E4000FFF7FEFD04F16800FFF7FAFD204605B0EC
:106E500030BD00BF801A0600A0860100ECAF0B0019
:106E600013B50446503000F05BF8636DD90705D5C3
:106E70000222042104F15800FFF7F6FD636D9A0722
:106E800005D50022032104F16000FFF7EDFD636DDD
:106E90005B0705D50222114604F16800FFF7E4FD07
:106EA000012300933C2202212046FFF7CFFA02B0D3
:106EB00010BD10B5436DD907044602D55830FFF711
:106EC000E0FD636D9A0703D504F16000FFF7D9FD7B
:106ED000636D5B0705D504F16800BDE81040FFF75E
:106EE000D0BD10BD436D024613F0010003D002F186
:106EF0005800FFF7F6BD7047436D024613F00200DD
:106F000003D002F16000FFF7ECBD7047436D02460D
:106F100013F0040003D002F16800FFF7E2BD7047F0
:106F200008B5024B1B681B6B019308BD48020300A8
:106F300008B5024B1B685B6B019308BD4802030058
:106F400008B5024B1B685B6C019308BD4802030047
:106F500008B5024B1B685B68019308BD180203006B
:106F600008B5024B1B68DB68019308BD18020300DB
:106F700008B5024B1B685B69019308BD180203004A
:106F800008B5024B1B685B68019308BD2C02030027
:106F900008B5024B1B689B68019308BD2C020300D7
:106FA00008B5024B1B68DB68019308BD2C02030087
:106FB00008B5024B1B681B69019308BD2C02030036
:106FC00008B5024B1B685B69019308BD2C020300E6
:106FD00008B5024B1B689B6A019308BD2C02030095
:106FE00008B5024B1B681B6B019308BD2C02030004
:106FF00008B5024B1B689B6F019308BD2C02030070
:1070000008B5024B1B681B68019308BD28020300EA
:1070100008B5024B1B68DB68019308BD280203001A
:1070200008B5024B1B689B69019308BD2802030049
:1070300008B5024B1B68DB69019308BD28020300F9
:1070400008B5024B1B681B6A019308BD28020300A8
:1070500008B5024B1B685B6A019308BD2802030058
:1070600008B5024B1B689B6A019308BD2802030008
:1070700008B5024B1B68DB6A019308BD28020300B8
:1070800008B5024B1B681B6B019308BD2802030067
:1070900008B5024B1B685B6B019308BD2802030017
:1070A00008B5024B1B681B6C019308BD2802030046
:1070B00008B5024B1B681B6D019308BD2802030035
:1070C00008B5024B1B685B69019308BD6C020300A5
:1070D00008B5024B1B685B69019308BD640203009D
:1070E00008B5024B1B681B6A019308BD64020300CC
:1070F00008B5024B1B685B6A019308BD640203007C
:1071000008B5024B1B689B6A019308BD640203002B
:1071100008B5024B1B689B68019308BD6802030019
:1071200008B5024B1B68DB68019308BD68020300C9
:1071300008B5024B1B689B69019308BD3802030028
:1071400008B5024B1B68DB69019308BD38020300D8
:1071500008B5024B1B681B6A019308BD3802030087
:1071600008B5024B1B689B6A019308BD38020300F7
:1071700008B5024B1B681B6B019308BD3802030066
:1071800008B5024B1B689B6B019308BD38020300D6
:1071900008B5024B1B681B68019308BD3002030051
:1071A00008B5024B1B685B69019308BD3002030000
:1071B00008B5024B1B68DB69019308BD3002030070
:1071C00008B5024B1B681B6A019308BD300203001F
:1071D00008B5024B1B685B6A019308BD30020300CF
:1071E00008B5024B1B68DB6B019308BD300203003E
:1071F00008B5024B1B681B6C019308BD30020300ED
:1072000008B5024B1B685B6C019308BD300203009C
:1072100008B5024B1B68DB68019308BD3C02030004
:1072200008B5024B1B681B69019308BD3C020300B3
:1072300008B5024B1B685B69019308BD3C02030063
:1072400008B5024B1B689B69019308BD3C02030013
:1072500008B5024B1B68DB69019308BD3C020300C3
:1072600008B5024B1B681B6A019308BD3C02030072
:1072700008B5024B1B689B6A019308BD3C020300E2
:1072800008B5024B1B681B6C019308BD3C02030050
:1072900008B5024B1B681B68019308BD4C02030034
:1072A00008B5024B1B685B68019308BD4C020300E4
:1072B00008B5024B1B681B69019308BD4C02030013
:1072C00008B5024B1B685B69019308BD4C020300C3
:1072D00008B5024B1B689B69019308BD4C02030073
:1072E00008B5024B1B68DB69019308BD4C02030023
:1072F00008B5024B1B681B6A019308BD4C020300D2
:1073000008B5024B1B689B6A019308BD4C02030041
:1073100008B5024B1B685B6B019308BD600203005C
:1073200008B5024B1B681B6D019308BD600203008A
:1073300008B5024B1B685B68019308BD200203007F
:1073400008B5024B1B685B69019308BD200203006E
:1073500008B5024B1B68DB6A019308BD20020300DD
:1073600008B5034B1B68D3F88830019308BD0000B3
:107370002002030008B5034B1B68D3F89430019337
:1073800008BD00002002030008B5024B1B689B6883
:10739000019308BD4402030008B5024B1B68DB6B78
:1073A000019308BD4402030008B5024B1B685B68EB
:1073B000019308BD4002030008B5024B1B689B689F
:1073C000019308BD4002030008B5024B1B68DB684F
:1073D000019308BD4002030008B5024B1B681B69FE
:1073E000019308BD4002030008B5024B1B685B69AE
:1073F000019308BD4002030008B5024B1B689B695E
:10740000019308BD4002030008B5024B1B68DB690D
:10741000019308BD4002030008B5024B1B681B6ABC
:10742000019308BD4002030008B5024B1B681B6BAB
:10743000019308BD4002030008B5024B1B685B6B5B
:10744000019308BD4002030008B5024B1B681B6C8A
:10745000019308BD4002030008B5024B1B685B6C3A
:10746000019308BD4002030008B5024B1B681B686E
:10747000019308BD1C02030008B5024B1B685B6842
:10748000019308BD1C02030008B5024B1B689B68F2
:10749000019308BD1C02030008B5024B1B68DB69A1
:1074A000019308BD1C02030008B5024B1B685B6A10
:1074B000019308BD1C02030008B5024B1B68DB6A80
:1074C000019308BD1C02030008B5024B1B68DB6B6F
:1074D000019308BD1C02030008B5024B1B681B6C1E
:1074E000019308BD1C02030008B5024B1B685B6CCE
:1074F000019308BD1C0203008A4210B507D0441A4C
:107500000298C01A4443501A94FBF0F0184410BD7E
:107510000021FFF715BF0000024800230360FFF7BA
:107520000FBD00BFC4E60320002240681146FFF7EC
:1075300073BF002240681146FFF77EBF40680022FB
:10754000FFF772BF4068002281F00101FFF75CBFC6
:10755000002340681A461946FFF74EBF00234068D3
:107560001A461946FFF740BF002240681146FFF750
:1075700033BF002240681146FFF71EBF406800225B
:107580000221FFF721BF002340681A46FFF70CBF16
:10759000024B03225A60024A1A607047C8E6032071
:1075A0004CB00B007047F8B5064615460C468F18D0
:1075B000BC4206D0336814F8011B9B6830469847DC
:1075C000F6E72846F8BD007C0022FFF739BD007CB5
:1075D0000021FFF73DBD007C0021FFF741BD007C8D
:1075E0000021FFF745BD007C0021FFF749BD10B524
:1075F00014210446FDF7F9F9204610BD38B50446BC
:1076000015464FF47A730022C4E90123094B217413
:10761000084623602946FFF743FDBF3008D16B6958
:10762000DB0705D56868FFF727FFE868FFF724FF49
:10763000204638BD88B00B00007C0022FFF7E0BC7C
:107640000023007C1A461946FFF7E2BC7FB50022F2
:107650001423CDE90122ADF804300B788DF8083001
:107660004B680393CB680493007C0B7A059301A9C4
:10767000FFF71EFD07B05DF804FB1FB5003B8DF85A
:1076800000104FF06401039118BF01236946019275
:107690008DF80830FFF7DAFF05B05DF804FB012331
:1076A000FFF7EBBF007C0022FFF7BABCC9B2FFF7BF
:1076B000F9BF007C0022FFF7BBBC0121FFF7F9BF37
:1076C000704710B518210446FDF78FF9204610BD0C
:1076D000F0B5037D062B8DB00E4600F104074FF088
:1076E000000412D000F1080515F8011D0A223046E9
:1076F00000F073F9AF42044419D0002CF4D02E21CD
:10770000304600F051F90444EEE72F236A4639462B
:107710000A208DF80040FFF7DBFC6846FDF71EF9F4
:1077200033680246DB68694630469847044620467F
:107730000DB0F0BD10B5054B0446112240F8043BD6
:10774000002102F0FFFA204610BD00BFB0B00B00D0
:107750000346074A10B543F8042B01F1100251F813
:10776000044B43F8044B9142F9D10A781A7010BDCA
:10777000B0B00B00037D042B04D14068003818BF63
:1077800001207047062B07D143683BB983682BB9AA
:10779000C3681BB90069F1E70020704701207047FA
:1077A00010B59DF8084044EA032343EA024242EA46
:1077B000016104234160037510BD000007B5064B4D
:1077C0000360CB7800938B784A780978FFF7E8FF5D
:1077D00003B05DF804FB00BFB0B00B00014B024AE0
:1077E0001A607047D0E6032042A00B0000234068D7
:1077F0001A46FFF7D9BD406800220221FFF7E4BD19
:10780000002240681146FFF7D7BD002240681146AC
:10781000FFF7E2BD002340681A461946FFF7E4BDB2
:10782000002340681A461946FFF7E6BD406800216C
:10783000FFF70ABE40680021FFF70EBE4068002235
:1078400081F00101FFF7E0BD40680022FFF7ECBDC9
:10785000002240681146FFF7EFBD00224068114644
:10786000FFF7DABD2DE9F04395B014460D46074603
:10787000FFF760FF00211C220DA8009102F062FAC0
:1078800040230C9320466B460CAA0021FFF748FCCE
:10789000044600284BD1024601216868FFF79CFD91
:1078A0000221804622466868FFF796FD009E8146C9
:1078B0002146002E3BD0002939D17368022B03D01A
:1078C0000A2B11D0F669F4E7B8F1000FFAD071690C
:1078D00006A8043107ADFFF771FF0FCD3C1D0FC4A3
:1078E0002B6823704146EDE7B9F1000FEAD07469C7
:1078F000102201A802F026FA06238DF8143001ADFB
:1079000004F108031834186859682A4603C208337A
:10791000A3421546F7D101A906A807ADFFF718FF46
:107920000FCD3C1D0FC42B6823704946CAE7009851
:10793000FFF7EEFB384615B0BDE8F083024B034A73
:107940001A6000225A607047D4E60320C4B00B00CE
:10795000F8B506460D468F180024BD420CD033689A
:1079600015F8011B9B6830469847031E01DB1C4439
:10797000F3E7002C08BF1C462046F8BD13B50446AB
:10798000084659B10191FCF7E9FF23680199DB68CA
:107990000246204602B0BDE81040184702B010BDB4
:1079A00008B5FFF7EBFF08BD03689B68184738B5BB
:1079B0000D210546FFF7F8FF0A2104462846FFF788
:1079C000F3FF204438BD38B50546FFF7D7FF04461E
:1079D0002846FFF7ECFF204438BD30B58BB00023BC
:1079E000012A8DF8243098BF0A2209AC0D46B1FB5C
:1079F000F2F101FB125303F0FF03092B94BF303364
:107A00003733DBB2AA4204F8013DEFD92146FFF734
:107A1000B5FF0BB030BD2DE9F04186B000AF054693
:107A20000E46381D142114463B60FFF73DFD132818
:107A30000ED8391D2846FFF7A1FF04461EB128467F
:107A4000FFF7B5FF044420461837BD46BDE8F08176
:107A500000F1080323F00703E846ADEB030D2246CF
:107A6000411C3B686846FFF71FFD69462846FFF743
:107A700085FF0446C546E1E7014B00229A60704746
:107A8000DCE603200021FFF7BBBB0021FFF7B0BB02
:107A900010B5044608462170FFF78AFB0023636097
:107AA000204610BD13B504460078FFF7EEFF58B925
:107AB000207801904FF6FF71FFF76AFB019802B042
:107AC000BDE81040FFF7DEBF02B010BD0078FFF741
:107AD000D9BF0000400830B51860002418688842FB
:107AE000E5B206D90134082C02D040081860F5E749
:107AF0000725024B5B5D137030BD00BFF8B00B0073
:107B00002DE9F04306468FB000780C46FFF7BDFF25
:107B100000281BDB35781422002109A802F012F995
:107B20000B23002209A92846ADF82430FFF750FBAB
:107B30009DF82D3013B19DF82C5055B10027B94652
:107B4000B846012523795DB1C3B100200FB0BDE86F
:107B5000F083DDF830809DF834909DF83570F1E7C2
:107B6000002B35D1A368434508D18DF820908DF8BE
:107B70002170BDF82020A3899A42E6D00023A16895
:107B80008DF80F300A9804AB0DF10F02FFF7A2FF3A
:107B9000217985B989B9A36843450ED38DF8209022
:107BA0008DF82170BDF82020A3899A4205D1049B4D
:107BB000434502D1C9E70029F9D100230193637B32
:107BC00000939DF80F20237B3078FFF709FBBCE77B
:107BD000CDE900552B462A460121F5E708B5007886
:107BE000FFF7DEFAC0B208BD10B50446FFF7C0F9D2
:107BF000E060236820465B699847002808DAFFF7B1
:107C0000B7F9E368C01AA3689842F2D34FF0FF3087
:107C100010BD2DE9F04107460C468E180D46B542C1
:107C2000A5EB040807D03846FFF7DEFF031E02DB92
:107C300005F8013BF3E74046BDE8F08110B5044686
:107C40000068FFF719FC204610BD10B50446006817
:107C500008B1FFF711FC0023C4E90133236010BD14
:107C600038B504460D4600680131FFF70DFC10B130
:107C7000C4E90005012038BD10B50368044623B1EE
:107C800043688B4201D3012010BD2046FFF7E8FF77
:107C90000028F9D0A368002BF5D122681370F2E711
:107CA00037B50D46114601920446FFF7E5FF019AEC
:107CB00028B92046FFF7C9FF204603B030BDA260B7
:107CC0002946206802F030F82268A3680021D154C8
:107CD000F2E7002313B5C0E9003304468360037361
:107CE00041B108460191FCF739FE01990246204650
:107CF000FFF7D6FF204602B010BD13B5044659B1B8
:107D000008460191FCF72AFE019902462046FFF73A
:107D1000C7FF204602B010BDFFF797FFF9E710B587
:107D200004468AB00023C4E90033A36023730846E5
:107D300001A900F061FC01A92046FFF7DEFF204603
:107D40000AB010BD054B02221A60054B054A9A6025
:107D50000020C3E90000FFF7EBBA00BFF8E60320FC
:107D6000ECE603200000FFFF13B503688DF8071051
:107D7000DC6B01224FF0FF330DF10701A04702B089
:107D800010BD10B40368DC6B4FF0FF33A4465DF800
:107D9000044B604713B5134602688DF80710D46B87
:107DA0000DF107010122A04702B010BD10B54369D3
:107DB000B3F88620B3F884309A42044608D0636949
:107DC000B3F88420511CA3F884101344187910BD13
:107DD00003681B6998470028F1D14FF0FF30F6E7A0
:107DE000704743691868C043C00F70477047000070
:107DF000064B994210B500F10C0405D0084600F07E
:107E0000EDFD002808BF0024204610BD3CB00B004B
:107E100010B5AC210446FCF7E8FD204610BDAC21AE
:107E2000FCF7E3BD2DE9F0414FF0000886B01C4699
:107E3000C0F8048005460E4617464146102202A8A7
:107E400001F080FF631C09D04FF47A73B4FBF3F2A6
:107E500003FB1244CDE902285C43049468691023B3
:107E60000093006802AB41F2050240F6FF71FFF794
:107E70005FF9002807DAFFF727FB03686B60002033
:107E800006B0BDE8F0816869002300683A463146D3
:107E9000FFF76EF9031EEEDB1846F1E738B584698B
:107EA0000A4B036005467CB16368013B63605BB9C4
:107EB000236820469B689847A368013BA3601BB9D1
:107EC00023682046DB689847284638BD3CB10B0044
:107ED00010B50446FFF7E2FF20461C21FCF785FDA4
:107EE000204610BD30B587B0044601AD6846FFF7A7
:107EF00065FC0FCD04340FC42B68237007B030BD70
:107F000070B54D69054B04468C3544F8043B064674
:107F10000FCD0FC42B682370304670BDB0B00B007E
:107F20002DE9F0439846036893B00D460024DB6AC0
:107F300006461746984728466B4622462146009437
:107F4000FFF7EEF80546002863D1009B002B4BD0CD
:107F50005B69002B48D006A8FFF7ECFB009B5C692F
:107F60006378022B04D1211D06A8FFF7BBFF26E092
:107F70000A2B24D11122294601A801F0E3FEA368AF
:107F8000002B38D004F108030DF1040C18341868E4
:107F90005968624603C20833A3429446F7D10623C8
:107FA00001A90CA88DF81430FFF7D2FB0DF1340CA9
:107FB000BCE80F0007AC0FC4DCF80030237006A843
:107FC000FFF7D8FB80B1336807ADD3F82090124B90
:107FD0000C930FCD0DAC0FC42B6823703A4643466B
:107FE0000CA93046C84705460098FFF791F8284687
:107FF00013B0BDE8F083E368002BC3D14FF6FF70E8
:10800000D4F81090FFF76CF88145BBD104F114014E
:10801000AAE72546E8E700BFB0B00B0038B54369D2
:108020001A68002A054610DAB3F88620B3F88430BF
:108030009A420AD103681B699847044628B92B68FD
:108040002846DB6A9847204638BD0120FCE710B57A
:108050004369B3F88620B3F884309A42044605D0C9
:108060006369B3F884201344187910BD03681B6951
:1080700098470028F4D14FF0FF30F6E7F8B5436990
:108080001746B3F88620B3F884309A4205460E4668
:1080900016D06969B1F88430B1F88640E41ABC4260
:1080A00028BF3C46043322461944304601F03CFECA
:1080B0006A69B2F884302344A2F884302046F8BDBF
:1080C00003681B6998470028E3D14FF0FF34F5E7B8
:1080D00042690023A2F884304269A2F886307047D2
:1080E0002DE9F0411F4603680C46DB6A8AB005465D
:1080F00016469847237DD5F81480042B0CBF022028
:108100000A2006220121FFF73BF8C8F800006B693E
:108110001B68002B08DA2B682846DB6A0024984786
:1081200020460AB0BDE8F0812846FFF7D1FFB7B17D
:10813000002303A9F8B20393ADF81030FEF7C0FF97
:108140000028E8D1686906230093006803AB41F278
:108150000B0240F6FF71FEF7EBFF0028DBD11C227B
:10816000002103A801F0EEFD237D042B1DD14FF467
:1081700007733046ADF80C30FEF7C2FFADF80E00C5
:108180006068FEF7ADFF04906B691C22186803A9B4
:10819000FEF7DEFF0028BED104340FCC6D698C35AC
:1081A0000FC523682B700124BAE740F61C23304624
:1081B000ADF80C30FEF7A4FF05AEADF80E00231DA0
:1081C00004F1140718685968324603C20833BB42E9
:1081D0001646F7D1D8E7000030B54269B2F88630CC
:1081E0008BB004462BB1B2F884209A4201D1FFF73C
:1081F0006FFF61690868002818DBB1F886507F2D91
:1082000014D804310823C5F180022944FEF7A8FFE1
:10821000002813DD6369B3F886200AB9A3F8842027
:108220006369B3F886201044A3F886006369B3F845
:108230008600B3F88430C01A0BB030BDFFF744F9A4
:1082400003680B2BF2D0FFF73FF903680B2BEDD03F
:1082500020230025CDE90235FFF736F903680193A5
:10826000084B0949009302AA2B463220FFF758F821
:1082700063691868FEF764FF63694FF0FF321A60A4
:10828000D4E700BF07B10B0000B10B0010B5436984
:1082900004461868002801DBFEF752FF63694FF0BF
:1082A000FF321A606069112200218C3001F04AFD12
:1082B0002046BDE81040FFF70BBF10B50023044671
:1082C0000160C0F884308830FFF734FA204610BDD2
:1082D00073B500234FF47A72C0E901320E4A03618C
:1082E000026043610446AC200191FCF77AFB051E55
:1082F00005F10C0608D00123C5E90133074B0199AC
:108300002B603046FFF7D9FF2046C4E90565FFF72B
:10831000DFFE02B070BD00BF3CB10B0020B10B000E
:1083200010B54FF0FF310446FFF7D2FF204610BDD5
:1083300010B504460068002801DBFEF701FF204667
:1083400010BD0C30FFF7F4BF024B1A68024B1A60E5
:10835000704700BF48E50320FCE6032070474174E6
:10836000704708B5007CFEF783FF20EAE07008BD87
:1083700008B5007CFEF754FF20EAE07008BD08B5A0
:10838000007CFEF75DFF40EAE07008BD08B5007CA8
:10839000FEF74EFF40EAE07008BD007CFEF758BFD4
:1083A00037B5457C04462DB1207C03B0BDE8304094
:1083B000FEF72EBF007C0191FEF75AFF00280199BD
:1083C000F2DC284603B030BD10B514210446FCF79A
:1083D0000CFB204610BD000010B54FF47A73044624
:1083E000084611460022C4E90123044B23600123FF
:1083F00020746374FEF744FF204610BDA4B10B0047
:10840000417470477047704708B50021007CFEF743
:108410005FFF40EAE07008BD08B50121007CFEF76F
:1084200057FF40EAE07008BD08B5007CFEF748FF42
:1084300020EAE07008BD08B5007CFEF739FF20EAAD
:10844000E07008BD13B50446007C0191FEF738FFCB
:108450000028019901DC607C20B1207CFEF740FF00
:1084600020EAE07002B010BD007CFEF741BF10B5FD
:1084700014210446FCF7B9FA204610BD10B54FF49C
:108480007A73044608460021C4E90113044B2360B3
:108490000123207463741146FEF7FAFE204610BDD6
:1084A000D4B10B00007C0022FEF7FABE007CFEF780
:1084B00027BF10B514220446002101F043FC2046DA
:1084C00010BD000010B50F4C88B003A8FFF7F1FFF6
:1084D0002178BFF35B8F11F001010FD1204601918C
:1084E000FCF792FA019948B103AA0748FFF7C6FFC3
:1084F0002046FCF78EFA054801F008FC024808B057
:1085000010BD00BF00E7032004E7032005840B0033
:10851000002240681146FEF75FBF00224068114606
:10852000FEF77ABF002240681146FEF785BF40681B
:108530000022FEF779BF4068002281F00101FEF7BA
:1085400063BF002340681A461946FEF755BF002353
:1085500040681A461946FEF747BF00224068114698
:10856000FEF72ABF406800220221FEF72DBF00233C
:1085700040681A46FEF718BF024B04225A60024AAE
:108580001A60704718E7032004B20B0010B50446C8
:10859000FCF7E4F9013823182046834206D9027813
:1085A000197800F8011B03F80129F6E710BD70B532
:1085B0000C46911E22291DD8254630B9234430226D
:1085C0009D4210D205F8012BFAE7B0FBF2F602FB50
:1085D0001600C1B2092894BF30315731C9B205F82D
:1085E000011B3046E9E7002320462B70FFF7CEFF42
:1085F000204670BD0020FCE738B5031E0C4615462A
:108600000EDAB3F1004F4FF02D0214BF5842184656
:1086100001230A702A461944FFF7C9FF204638BDD6
:108620000123F9E7014B1860704700BF50E50320B4
:1086300008B50B4B43B1FFF745FF03681B6998472B
:10864000002801DDAFF30080064B43B100F09AF93A
:1086500003681B699847002801DDAFF3008008BD5F
:10866000000000000000000008B5FFF7E1FFFEF782
:108670007FFC014B186008BD28E703200548064A27
:10868000064908B5121A01F04FFB054B054A1A605E
:1086900008BD00BF00F4032004F403207CB50B00E8
:1086A00000F403201E1C279A07B5002300931A46E6
:1086B0006FF07701FEF75EFE03B05DF804FB00008B
:1086C00007B543880A2B08D0502B0BD1094B1B68E8
:1086D0004BB103B05DF804EB1847FFF7E5FF03B0BB
:1086E0005DF804FB002300931A466FF07701FEF754
:1086F00041FEF4E724E7032010B512480021FEF7FD
:10870000F3FE114B1A68114B9A42114B0CBF012218
:1087100000221A7001D0FFF7B1FFFEF719FC0446E2
:1087200001F018FB0B4B13B12046AFF30080002182
:108730000848FEF731FEBDE8104007480021FEF76B
:108740000FBE00BF25860B0000F403201E1C279AD5
:1087500020E7032000000000C1860B00232813B58A
:1087600002D9002002B010BDA0F10B03022B1AD8D1
:10877000174C2178BFF35B8F11F001010BD120461C
:108780000191FCF741F9019928B11248FFF780F9EE
:108790002046FCF73EF90F4B1878FEF711FD002834
:1087A000DFD10120DEE7012809D800F0ABF8002175
:1087B000007CFEF76DFC80F00100C0B2D2E7093802
:1087C0000128EED800F0DEF8007CFEF749FDF2E764
:1087D000B8E60320BCE60320232838B504460D463E
:1087E0000AD8FF2908D0FFF7B9FF28B1294620464B
:1087F000BDE83840FEF7CCBB38BD38B504460D4661
:10880000FEF7CEFBFF2810D0062804D84D2323FA0C
:1088100000F0C30709D42046FFF7A0FF28B129467E
:108820002046BDE83840FEF7C3BB38BD10B504464E
:10883000FEF7B6FB031FDBB2012B08D92046FFF77A
:108840008DFF20B12046BDE81040FEF7B9BB0020E7
:1088500010BD0D2810B504469CBF0E34A4B22046AE
:10886000FFF77CFF50B103212046FEF789FB032868
:1088700004D12046BDE81040FEF7B2BB002010BD79
:1088800038B504460D46FFF769FFF0B104212046D4
:10889000FEF776FB042805D1A9B22046BDE8384092
:1088A000FEF796BB02212046FEF76AFB02280CD198
:1088B0002046FEF775FB012801D0042805D1294682
:1088C0002046BDE83840FEF793BB38BD7047000036
:1088D00038B50A4B03600123044643610849202050
:1088E00000F074F8202560600549A560284600F076
:1088F0006DF8C4E90305204638BD00BF180001002B
:1089000038B20B0030B50E4D2978BFF35B8F11F0F4
:10891000010487B011D12846FCF776F868B16846A3
:10892000FFF7D6FF6A4621460648FEF767FE28464F
:10893000FCF76FF8044801F0E9F9024807B030BDD0
:108940002CE7032030E70320CD880B0070470000A0
:1089500038B5044614252A46002101F0F3F9258094
:108960004025074925812846258200F02FF8044933
:108970006060284600F02AF8E060204638BD00BF5D
:1089800038B20B0030B50E4D2978BFF35B8F11F074
:10899000010487B011D12846FCF736F868B101A868
:1089A000FFF7D6FF01AA21460648FFF715FD284626
:1089B000FCF72FF8044801F0A9F9024807B030BDD0
:1089C00044E7032048E703204D890B00FCF70BB870
:1089D00008B5FEF771FD08B5FEF76EFD014900F020
:1089E000F9B800BF54B20B007FB500241023CDE9C5
:1089F0000234036815469E6912686B46CDE900444F
:108A0000B0479DF8043003F00603062B03BF009B1C
:108A10002B600120204604B070BD0098904214BF26
:108A2000012006207047000010B5034B0360044688
:108A300000F0CDF8204610BD94B20B0010B50446EE
:108A4000FFF7F2FF20460821FBF7CFFF204610BDBD
:108A50002DE9F0411F46DDE90834DDF8188098451E
:108A60000646154607D1079900F0B4F818B16571AC
:108A70000020BDE8F0813946304600F0ABF8002810
:108A8000F6D00123C4F800802571A371F0E738B552
:108A900015461C4600F09EF820B10823E36006232B
:108AA0002560237138BD73B505460C4601921E46FC
:108AB00000F090F850B9032E08D82368019A5B693A
:108AC0002946204602B0BDE87040184702B070BD8C
:108AD00010B5034B03600446FFF7A6FF204610BD08
:108AE000F4B20B0010B50446FFF7F2FF20460C214C
:108AF000FBF77BFF204610BDF7B5089F9742054660
:108B00000E4614460AD0A86802680897156A3146CE
:108B10002246AC4603B0BDE8F040604719460193D9
:108B200000F058F8019B0028EDD0062003B0F0BDFE
:108B30002DE9F14F0D461946DDE90A4BDDE90CA69A
:108B400081461746984600F045F890B1002D3460F4
:108B5000377109DB61198A450CBF06210121B1710A
:108B6000002001B0BDE8F08F0235F9D10123B371C7
:108B7000F6E7544506D15946484600F02BF808B1AF
:108B80007771EDE7D9F808000368CDE90CA6CDE9C7
:108B90000A4BDC693A4643462946A44601B0BDE883
:108BA000F04F60472DE9F04107460C4615461E463A
:108BB000FFF76DFF48B9B86803689F692A463346D6
:108BC0002146BC46BDE8F0416047BDE8F0817047F2
:108BD00000207047814208B50ED0406803782A2BE8
:108BE0000CD049680B782A2B08BF0131FBF7ACFE8B
:108BF000B0FA80F0400908BD0120FCE70020FAE748
:108C0000F8B52DED028B57EC106B55EC114B00F0C5
:108C1000CBF8634BB0EE408AF0EE608A93F90030F7
:108C200001332AD022462B4620462946FBF74EFE2A
:108C300018BB32463B4630463946FBF747FE002814
:108C400044D10022002330463946FBF70DFED8B14F
:108C50000022002320462946FBF706FE00283DD1CE
:108C600045EC104B00F010FF38B120462946002299
:108C70000023FBF703FE00285CD1B0EE480AF0EEBB
:108C8000680ABDEC028BF8BDB0EE480AF0EE680A47
:108C900000F0FAFE58B351EC180B00220023FBF74A
:108CA000E3FD0028E9D047EC106B00F0EDFE002852
:108CB000E3D045EC104B00F0E7FE0028DDD0FEF7D6
:108CC00003FC22239FED2E8B0360D6E72046294626
:108CD00000220023FBF7C8FD0028CED09FED2A8B91
:108CE000B0EE480AF0EE680ABDEC028BF8BD47EC26
:108CF000106B00F0C9FE0028CDD045EC104B00F001
:108D0000C3FE0028C7D053EC182B18EE100A1946E2
:108D1000FBF7DCFD20BBFEF7D7FB034622221A60DF
:108D20003046394600220023FBF7A8FD48B99FEDE5
:108D3000188BA2E7FEF7C8FB21239FED178B03607A
:108D40009BE745EC104B00F0B3FE224651EC100BB4
:108D50002B46FBF789FD0028E9D19FED0F8B8CE7AF
:108D6000FEF7B2FB002200232121016010461946C4
:108D7000FBF73CFC41EC180B7FE700BFAFF3008032
:108D80000000000000000000000000000000F03FB4
:108D9000000000000000F07F000000000000F0FF75
:108DA0004CE50320000000002DE9F04F57EC116B5B
:108DB0002DED0C8B27F0004A5AEA060287B03DD011
:108DC00055EC104B724925F00048884510EE102AEA
:108DD000A9462CDC11EE103ABB4636D08A4526DC7B
:108DE0006B498A4521D0B9F1000F39DB0021009190
:108DF000002B51D1664B9A4500F0A280654B9A45F5
:108E000000F0B080BBF1804F00F0C084624B9B4506
:108E100042D1B9F1000F3FDB45EC104B07B0BDEC80
:108E20000C8BBDE8F04F00F059BD002BDBD008F1F2
:108E3000404808F5801858EA020309D19FED500B0D
:108E400007B0BDEC0C8BBDE8F08F0CB9C245C7DD97
:108E5000524807B0BDEC0C8BBDE8F04F00F020BECF
:108E60004F498A4500F38580A1F154718A450FDD91
:108E70004FEA2A51A1F2FF31142940F39B84C1F13A
:108E8000340123FA01F000FA01F1994200F0ED8477
:108E900000210091002BB1D045EC104B029200F064
:108EA000E9FD029A5ABBB8F1000F04D0394B29F002
:108EB00040429A4223D1BBF1000F07DA53EC102B4A
:108EC00034490020FBF792FB41EC100BB9F1000F85
:108ED000B6DA009B08F1404808F5801858EA030309
:108EE00040F08D8453EC102B10461946FBF79CF88C
:108EF00002460B46FBF77AFB41EC100BA0E7009A09
:108F00004FEAD973013B0493134335D0254B9A455F
:108F10004CDD03F104739A45234B40F3DB83984502
:108F200040F36083BBF1000F40F3608316A3D3E9E5
:108F3000002310461946FBF72FFA41EC100B7FE790
:108F400008F1404303F5801313433FF477AF164B0A
:108F5000984540F37A83BBF1000FC0F2478347EC9A
:108F6000106B6DE7BBF1000FC0F21A8445EC104B9B
:108F700066E7022100913BE722462B46B4E700BF9B
:108F8000000000000000F03F9C7500883CE4377E44
:108F90000000F07F0000F03F0000E03F30B30B0026
:108FA000FFFF3F430000E041FFFFEF3FE44B09EAD2
:108FB0000303002253B951EC100BE24BFBF7ECF921
:108FC00041EC100B10EE908A6FF034024FEA2853F8
:108FD000A3F2FF339A18DC4B0592C8F3130848F04C
:108FE0007F54984544F4401407DDD84B984540F32E
:108FF000148401320592A4F580149FEDB96B9FEDA6
:10900000BA7B53EC162BB0EE47CAF0EE67CA0025C8
:10901000B0EE47DAF0EE67DA5BEC10ABA3465046F1
:10902000594643EC1A2BFAF7FFFF53EC1A2B8046F4
:10903000894650465946FAF7F9FF02460B4600208A
:10904000C349FBF7D3FA41EC1B0B404653EC1B2BF7
:109050004946FBF7A1F941EC180B0A460146CDE958
:1090600002120021029164104BEC19AB44F0005441
:10907000DDE902AB04F500230020591904460D4632
:1090800002460B4650465946FBF786F902460B4608
:1090900040464946FAF7C8FF53EC1A2B80468946EA
:1090A00020462946FAF7C0FF02460B4651EC190B41
:1090B000FAF7BAFF52465B46FBF76EF902460B46DB
:1090C00040464946FAF7B0FF53EC1B2BFBF764F917
:1090D00053EC182B41EC190B51EC180BFBF75CF916
:1090E00083A3D3E9002304460D46FBF755F982A379
:1090F000D3E90023FAF79AFF22462B46FBF74CF9F7
:109100007FA3D3E90023FAF791FF22462B46FBF712
:1091100043F97DA3D3E90023FAF788FF22462B46C3
:10912000FBF73AF97AA3D3E90023FAF77FFF224647
:109130002B46FBF731F978A3D3E90023FAF776FF42
:109140002246804689462B4620462946FBF724F9CD
:1091500002460B4640464946FBF71EF95246044676
:109160000D465B4651EC180BFAF760FF53EC192BD8
:10917000FBF712F922462B46FAF758FF5246804673
:1091800089465B4650465946FBF706F902460B46B0
:1091900043EC1A2B6F4B0022FAF748FF42464B462E
:1091A000FAF744FF00240D4622462B465046594606
:1091B000FBF7F2F8674B82468B4600222046294691
:1091C000FAF732FF53EC1A2BFAF72EFF02460B4642
:1091D00040464946FAF728FF53EC182BFBF7DCF81A
:1091E00022462B4604460D4651EC190BFBF7D4F8EA
:1091F00002460B4620462946FAF718FF8046894664
:1092000042464B4650465946FAF710FF44A3D3E96D
:109210000023002004460D46FBF7BEF8524641EC01
:10922000190B5B4620462946FAF7FEFE02460B461E
:1092300040464946FAF7F8FE3BA3D3E90023FBF783
:10924000ABF802460B462046294614461D4638A375
:10925000D3E90023FBF7A0F802460B462046294637
:10926000FAF7E4FE53EC1D2BFAF7E0FE8046059872
:109270008946FBF727F8424682468B464B4651EC1F
:10928000190BFAF7D3FE53EC1C2BFAF7CFFE52461C
:109290005B46FAF7CBFE52465B46002004460D467D
:1092A000FAF7C2FE53EC1C2BFAF7BEFE53EC192B57
:1092B000FAF7BAFE02460B4640464946FAF7B4FEB4
:1092C000009B049A013B134382468B4640F0B681D3
:1092D0009FED197BB0EE478AF0EE678A3CE000BF55
:1092E000000000000000F03F00000000000000004F
:1092F000EF4E454A287ECA3F65DBC9934A86CD3F7B
:1093000001411DA96074D13F4D268F515555D53F60
:10931000FFAB6FDBB66DDB3F033333333333E33FF8
:10932000000000E009C7EE3FFD033ADC09C7EE3F4D
:10933000F5015B14E02F3EBE000000000000F0BF0E
:109340000000F07F000040438E98030079B60B00C8
:109350000000F03F000008400023CDE900670093C3
:10936000DDE90089304642464B463946FAF75CFE55
:1093700022462B46FBF710F832463B4606460F4680
:1093800050465946FBF708F802460B463046394628
:10939000FAF74CFE42464B4606460F462046294603
:1093A000FAF7FAFF04460D462B4630463946224668
:1093B000FAF73CFEC24B9942804689468A4640F302
:1093C000188101F13F4303F5E003034340F00782B6
:1093D000A3A3D3E9002330463946FAF727FE024615
:1093E0000B46404649469046994622462B46FAF798
:1093F0001BFE02460B4640464946FBF75DFA002835
:1094000040F0ED81CAF30A534FF48012A3F2FE3309
:1094100042FA03F35344AB49C3F30A52A2F2FF32B8
:1094200041FA02FCC3F3130141F48011C2F11402AA
:1094300041FA02F2002023EA0C01BAF1000F009277
:109440000B46024602DA009949420091204629461D
:10945000FAF7EAFD009B1B05029302460B46044601
:109460000D4630463946FAF7E1FD89464FF00008CF
:109470007DA3D3E9002340464946FAF78DFF2246F3
:109480002B4682468B4640464946FAF7CDFD0246BA
:109490000B4630463946FAF7C7FD75A3D3E90023DA
:1094A000FAF77AFF74A3D3E9002304460D46404639
:1094B0004946FAF771FF02460B4620462946FAF75D
:1094C000B5FD06460F4632463B4650465946FAF72A
:1094D000ADFD52465B4604460D46FAF7A5FD024631
:1094E0000B4630463946FAF79FFD224680468946AC
:1094F0002B4620462946FAF74FFF61A3D3E9002304
:1095000006460F46FAF748FF5FA3D3E90023FAF7B0
:109510008BFD32463B46FAF73FFF5DA3D3E90023BC
:10952000FAF784FD32463B46FAF736FF5AA3D3E9F1
:109530000023FAF779FD32463B46FAF72DFF58A390
:10954000D3E90023FAF772FD32463B46FAF724FFCF
:1095500002460B4620462946FAF766FD06460F46A8
:1095600032463B4620462946FAF716FF02460B468E
:109570003046394616461F4600224FF08043FAF720
:1095800053FD02460B4630463946FBF72FF842465C
:1095900006460F464B4620462946FAF7FDFE424650
:1095A0004B46FAF743FD02460B4630463946FAF77A
:1095B0003BFD22462B46FAF737FD02460B460020BC
:1095C0004149FAF731FD029A0B461344B3F5801F67
:1095D000C0F24381194653EC182BFAF7DDFE41EC3B
:1095E000100B2DE4BBF1000FFFF6A0AC9FED2E0B8E
:1095F00026E4DFF8DCC021F00043634540F3E78058
:10960000324B0B4403430AD122462B46FAF70CFD9A
:1096100032463B46FBF746F900283FF4F3AE24A35D
:10962000D3E9002351EC180BFAF7B6FE20A3D3E9D7
:109630000023FAF7B1FE41EC100B01E49FED1E7B15
:10964000B0EE478AF0EE678A86E6BBF1000FCDDA0E
:1096500007F1004300EE106A00EE903AFFF7F0BB0E
:10966000FE822B654715973C00000000432EE63F25
:10967000EF39FAFE422EE63F396CA80C615C20BE41
:10968000D0A4BE726937663EF16BD2C541BDBB3E08
:109690002CDE25AF6A56113F93BDBE166CC1663FE6
:1096A0003E5555555555C53F0000000000000000CF
:1096B00059F3F8C21F6EA501000000000000F03F42
:1096C000FFFF8F40FFFF0F000000F03F00346F3FAF
:1096D000FFCB9040984585DB7D4B98453FF722AC0A
:1096E00051EC100B7A4B0022FAF79EFC68A3D3E9E9
:1096F000002304460D46FAF74FFE67A3D3E9002383
:1097000082468B4620462946FAF746FE714B41ECCD
:10971000180B002220462946FAF73EFE02460B4669
:109720005FA1D1E90001FAF77FFC22462B46FAF748
:1097300033FE02460B4600206749FAF775FC2246C5
:10974000804689462B4620462946FAF725FE0246E2
:109750000B4640464946FAF71FFE53A3D3E90023C0
:10976000FAF71AFE02460B4651EC180BFAF75CFCAE
:109770008046894642464B4650465946FAF756FCC3
:10978000002052465B4604460D4691E522462B4694
:1097900020462946FAF700FE41EC100BFFF750BBBC
:1097A0004B49002022462B46FAF720FF41EC100BD4
:1097B000FFF746BB002B44D1C1F114014AFA01F076
:1097C00000FA01F151455AD00093FFF717BB424A06
:1097D00093425BDCDDE900120291009146E634A37E
:1097E000D3E9002351EC180BFAF7D6FD30A3D3E9E7
:1097F0000023FAF7D1FD41EC100BFFF721BB009BD2
:10980000012B7FF41DAB10EE901A10EE102A01F11F
:10981000004343EC102BFFF713BB9FED277BB0EE0B
:1098200047CAF0EE67CA9FED267BB0EE47DAF0EE4E
:1098300067DA9FED257B4FF4802553EC172BFFF75C
:10984000EBBB45EC104B009200F014F9009A002A93
:109850007FF492AB0092FFF726BB41EC100B00980F
:1098600000F0C2F951EC100BB5E600F00100C0F1B8
:1098700002010091002B3FF4C1AAFFF70DBB00F0DD
:109880000100C0F102030093FFF7B8BA1B15BBE556
:10989000000000604715F73F44DF5DF80BAE543E13
:1098A000555555555555D53FFE822B654715F73F04
:1098B0009C7500883CE4377E0000004003B8E23F1E
:1098C00006D0CF43EBFD4C3E000000000000F83F07
:1098D0000000F03F0000D03F0000E03F2DE9F041E4
:1098E000634A55EC104BAA4300F09F80002D10EE08
:1098F00010CA2B4654DD291563D0C3F31303A1F21C
:10990000FF37C90743F4801304D45B0003EBDC7317
:109910004FEA4C0C4FEADC72002602EB43037F1047
:109920004FEA4C0C4FF0160E34464FF40012A118BB
:10993000994202DC5B1A8C1816445B00BEF1010EE2
:1099400003EBDC734FEA52024FEA4C0CEFD1754641
:1099500020204FF000420AE044D04FEADC71013889
:1099600001EB43034FEA4C0C4FEA520243D0A342AF
:1099700002EB0E01F0DD002901EB020E0ADBA0462E
:109980001B1B614588BF03F1FF33ACEB010C154491
:109990004446E2E7BEF1000FF1DB04F10108EFE716
:1099A00025F00042224338D0002D4ED129464FEAFF
:1099B000DC22153913464FEA4C5C002AF7D0D60258
:1099C00050D400205B00DD02044600F10100F9D50F
:1099D0001A4663460CFA00FCC0F12000C340091B84
:1099E00013438AE76145B8D8002901EB020ED1DBA9
:1099F00098460023C9E753EA0C0310D16808711098
:109A0000F30701F17F5101F5001148BF40F000401C
:109A100001EB0753024643EC102BBDE8F0816A1CB2
:109A200016BF681C01364008E9E710EE102A10EE58
:109A3000100A2B462946FAF7AFFC22462B46FAF7C6
:109A4000F5FA41EC100BBDE8F08110EE102A20462B
:109A50002946FAF7E9FA02460B46FAF7C7FD41EC48
:109A6000100BDAE7634620204FF0FF34B6E700BF63
:109A70000000F07F51EC100B10EE102A21F0004393
:109A800043EC102B704700BF82B08DED000B0198A6
:109A900040F0004000F58010C00F02B0704700BFDA
:109AA0009FED010B704700BF000000000000F87F31
:109AB000F0B553EC102BC3F30A5CACF2FF31132961
:109AC00010EE100A83B01C464FEAD37E3ADC002920
:109AD00030DB424D45FA01FC03EA0C0515432DD05D
